{"abi":[{"type":"receive","stateMutability":"payable"},{"type":"function","name":"DEFAULT_ADMIN_ROLE","inputs":[],"outputs":[{"name":"","type":"bytes32","internalType":"bytes32"}],"stateMutability":"view"},{"type":"function","name":"claimAllTokens","inputs":[],"outputs":[],"stateMutability":"nonpayable"},{"type":"function","name":"claimToken","inputs":[{"name":"tokenAddress","type":"address","internalType":"address"}],"outputs":[],"stateMutability":"nonpayable"},{"type":"function","name":"depositERC20","inputs":[{"name":"tokenAddress","type":"address","internalType":"contract IERC20"},{"name":"amount","type":"uint256","internalType":"uint256"}],"outputs":[{"name":"","type":"bool","internalType":"bool"}],"stateMutability":"nonpayable"},{"type":"function","name":"depositETH","inputs":[],"outputs":[{"name":"","type":"bool","internalType":"bool"}],"stateMutability":"payable"},{"type":"function","name":"ethAddress","inputs":[],"outputs":[{"name":"","type":"address","internalType":"address"}],"stateMutability":"view"},{"type":"function","name":"getRoleAdmin","inputs":[{"name":"role","type":"bytes32","internalType":"bytes32"}],"outputs":[{"name":"","type":"bytes32","internalType":"bytes32"}],"stateMutability":"view"},{"type":"function","name":"getTokenWhiteList","inputs":[],"outputs":[{"name":"","type":"address[]","internalType":"address[]"}],"stateMutability":"view"},{"type":"function","name":"grantRewards","inputs":[{"name":"tokenAddress","type":"address","internalType":"address"},{"name":"granter","type":"address","internalType":"address"},{"name":"amount","type":"uint256","internalType":"uint256"}],"outputs":[],"stateMutability":"nonpayable"},{"type":"function","name":"grantRole","inputs":[{"name":"role","type":"bytes32","internalType":"bytes32"},{"name":"account","type":"address","internalType":"address"}],"outputs":[],"stateMutability":"nonpayable"},{"type":"function","name":"hasRole","inputs":[{"name":"role","type":"bytes32","internalType":"bytes32"},{"name":"account","type":"address","internalType":"address"}],"outputs":[{"name":"","type":"bool","internalType":"bool"}],"stateMutability":"view"},{"type":"function","name":"initialize","inputs":[{"name":"_initialOwner","type":"address","internalType":"address"},{"name":"_treasureManager","type":"address","internalType":"address"},{"name":"_withdrawManager","type":"address","internalType":"address"}],"outputs":[],"stateMutability":"nonpayable"},{"type":"function","name":"owner","inputs":[],"outputs":[{"name":"","type":"address","internalType":"address"}],"stateMutability":"view"},{"type":"function","name":"queryRewards","inputs":[{"name":"_tokenAddress","type":"address","internalType":"address"}],"outputs":[{"name":"","type":"uint256","internalType":"uint256"}],"stateMutability":"view"},{"type":"function","name":"renounceOwnership","inputs":[],"outputs":[],"stateMutability":"nonpayable"},{"type":"function","name":"renounceRole","inputs":[{"name":"role","type":"bytes32","internalType":"bytes32"},{"name":"callerConfirmation","type":"address","internalType":"address"}],"outputs":[],"stateMutability":"nonpayable"},{"type":"function","name":"revokeRole","inputs":[{"name":"role","type":"bytes32","internalType":"bytes32"},{"name":"account","type":"address","internalType":"address"}],"outputs":[],"stateMutability":"nonpayable"},{"type":"function","name":"setTokenWhiteList","inputs":[{"name":"tokenAddress","type":"address","internalType":"address"}],"outputs":[],"stateMutability":"nonpayable"},{"type":"function","name":"setWithdrawManager","inputs":[{"name":"_withdrawManager","type":"address","internalType":"address"}],"outputs":[],"stateMutability":"nonpayable"},{"type":"function","name":"supportsInterface","inputs":[{"name":"interfaceId","type":"bytes4","internalType":"bytes4"}],"outputs":[{"name":"","type":"bool","internalType":"bool"}],"stateMutability":"view"},{"type":"function","name":"tokenBalances","inputs":[{"name":"","type":"address","internalType":"address"}],"outputs":[{"name":"","type":"uint256","internalType":"uint256"}],"stateMutability":"view"},{"type":"function","name":"tokenWhiteList","inputs":[{"name":"","type":"uint256","internalType":"uint256"}],"outputs":[{"name":"","type":"address","internalType":"address"}],"stateMutability":"view"},{"type":"function","name":"transferOwnership","inputs":[{"name":"newOwner","type":"address","internalType":"address"}],"outputs":[],"stateMutability":"nonpayable"},{"type":"function","name":"treasureManager","inputs":[],"outputs":[{"name":"","type":"address","internalType":"address"}],"stateMutability":"view"},{"type":"function","name":"userRewardAmounts","inputs":[{"name":"","type":"address","internalType":"address"},{"name":"","type":"address","internalType":"address"}],"outputs":[{"name":"","type":"uint256","internalType":"uint256"}],"stateMutability":"view"},{"type":"function","name":"withdrawERC20","inputs":[{"name":"tokenAddress","type":"address","internalType":"contract IERC20"},{"name":"withdrawAddress","type":"address","internalType":"address"},{"name":"amount","type":"uint256","internalType":"uint256"}],"outputs":[{"name":"","type":"bool","internalType":"bool"}],"stateMutability":"nonpayable"},{"type":"function","name":"withdrawETH","inputs":[{"name":"withdrawAddress","type":"address","internalType":"address payable"},{"name":"amount","type":"uint256","internalType":"uint256"}],"outputs":[{"name":"","type":"bool","internalType":"bool"}],"stateMutability":"payable"},{"type":"function","name":"withdrawManager","inputs":[],"outputs":[{"name":"","type":"address","internalType":"address"}],"stateMutability":"view"},{"type":"event","name":"DepositToken","inputs":[{"name":"tokenAddress","type":"address","indexed":true,"internalType":"address"},{"name":"sender","type":"address","indexed":true,"internalType":"address"},{"name":"amount","type":"uint256","indexed":false,"internalType":"uint256"}],"anonymous":false},{"type":"event","name":"GrantRewardTokenAmount","inputs":[{"name":"tokenAddress","type":"address","indexed":true,"internalType":"address"},{"name":"granter","type":"address","indexed":false,"internalType":"address"},{"name":"amount","type":"uint256","indexed":false,"internalType":"uint256"}],"anonymous":false},{"type":"event","name":"Initialized","inputs":[{"name":"version","type":"uint64","indexed":false,"internalType":"uint64"}],"anonymous":false},{"type":"event","name":"OwnershipTransferred","inputs":[{"name":"previousOwner","type":"address","indexed":true,"internalType":"address"},{"name":"newOwner","type":"address","indexed":true,"internalType":"address"}],"anonymous":false},{"type":"event","name":"RoleAdminChanged","inputs":[{"name":"role","type":"bytes32","indexed":true,"internalType":"bytes32"},{"name":"previousAdminRole","type":"bytes32","indexed":true,"internalType":"bytes32"},{"name":"newAdminRole","type":"bytes32","indexed":true,"internalType":"bytes32"}],"anonymous":false},{"type":"event","name":"RoleGranted","inputs":[{"name":"role","type":"bytes32","indexed":true,"internalType":"bytes32"},{"name":"account","type":"address","indexed":true,"internalType":"address"},{"name":"sender","type":"address","indexed":true,"internalType":"address"}],"anonymous":false},{"type":"event","name":"RoleRevoked","inputs":[{"name":"role","type":"bytes32","indexed":true,"internalType":"bytes32"},{"name":"account","type":"address","indexed":true,"internalType":"address"},{"name":"sender","type":"address","indexed":true,"internalType":"address"}],"anonymous":false},{"type":"event","name":"WithdrawManagerUpdate","inputs":[{"name":"withdrawManager","type":"address","indexed":true,"internalType":"address"}],"anonymous":false},{"type":"event","name":"WithdrawToken","inputs":[{"name":"tokenAddress","type":"address","indexed":true,"internalType":"address"},{"name":"sender","type":"address","indexed":false,"internalType":"address"},{"name":"withdrawAddress","type":"address","indexed":false,"internalType":"address"},{"name":"amount","type":"uint256","indexed":false,"internalType":"uint256"}],"anonymous":false},{"type":"error","name":"AccessControlBadConfirmation","inputs":[]},{"type":"error","name":"AccessControlUnauthorizedAccount","inputs":[{"name":"account","type":"address","internalType":"address"},{"name":"neededRole","type":"bytes32","internalType":"bytes32"}]},{"type":"error","name":"InvalidInitialization","inputs":[]},{"type":"error","name":"IsZeroAddress","inputs":[]},{"type":"error","name":"NotInitializing","inputs":[]},{"type":"error","name":"OwnableInvalidOwner","inputs":[{"name":"owner","type":"address","internalType":"address"}]},{"type":"error","name":"OwnableUnauthorizedAccount","inputs":[{"name":"account","type":"address","internalType":"address"}]},{"type":"error","name":"ReentrancyGuardReentrantCall","inputs":[]},{"type":"error","name":"SafeERC20FailedOperation","inputs":[{"name":"token","type":"address","internalType":"address"}]}],"bytecode":{"object":"0x6080604052348015600f57600080fd5b506119678061001f6000396000f3fe6080604052600436106101bb5760003560e01c80634782f779116100ec578063a217fddf1161008a578063d547741f11610064578063d547741f1461054b578063ec3e9da51461056b578063f2fde38b1461058b578063f6326fb3146105ab57600080fd5b8063a217fddf146104f6578063a2672ad71461050b578063c0c53b8b1461052b57600080fd5b8063715018a6116100c6578063715018a6146104645780638da5cb5b1461047957806391d14854146104b657806397feb926146104d657600080fd5b80634782f779146103e1578063523fba7f146103f4578063659f24561461042157600080fd5b8063254c5d871161015957806336568abe1161013357806336568abe14610359578063410c9f9a1461037957806341398b151461039957806344004cc1146103c157600080fd5b8063254c5d87146102e15780632f2ff15d1461031957806332f289cf1461033957600080fd5b806317e3e2e81161019557806317e3e2e81461025c5780631e4bd42c1461027c57806323ecdbee14610291578063248a9ca3146102b357600080fd5b806301ffc9a7146101cf57806303186d22146102045780630ec08b001461023c57600080fd5b366101ca576101c86105af565b005b600080fd5b3480156101db57600080fd5b506101ef6101ea36600461167e565b610676565b60405190151581526020015b60405180910390f35b34801561021057600080fd5b50600054610224906001600160a01b031681565b6040516001600160a01b0390911681526020016101fb565b34801561024857600080fd5b506102246102573660046116af565b6106ad565b34801561026857600080fd5b506101c86102773660046116dd565b6106d7565b34801561028857600080fd5b506101c8610729565b34801561029d57600080fd5b506102a66108c3565b6040516101fb91906116fa565b3480156102bf57600080fd5b506102d36102ce3660046116af565b610925565b6040519081526020016101fb565b3480156102ed57600080fd5b506102d36102fc366004611746565b600460209081526000928352604080842090915290825290205481565b34801561032557600080fd5b506101c861033436600461177f565b610947565b34801561034557600080fd5b506101c86103543660046116dd565b610969565b34801561036557600080fd5b506101c861037436600461177f565b610b50565b34801561038557600080fd5b506101c86103943660046117a4565b610b88565b3480156103a557600080fd5b5061022473eeeeeeeeeeeeeeeeeeeeeeeeeeeeeeeeeeeeeeee81565b3480156103cd57600080fd5b506101ef6103dc3660046117a4565b610c97565b6101ef6103ef3660046117e5565b610e04565b34801561040057600080fd5b506102d361040f3660046116dd565b60036020526000908152604090205481565b34801561042d57600080fd5b506102d361043c3660046116dd565b3360009081526004602090815260408083206001600160a01b03949094168352929052205490565b34801561047057600080fd5b506101c8610fe0565b34801561048557600080fd5b507f9016d09d72d40fdae2fd8ceac6b6234c7706214fd39c1cd1e609a0528c199300546001600160a01b0316610224565b3480156104c257600080fd5b506101ef6104d136600461177f565b610ff2565b3480156104e257600080fd5b506101ef6104f13660046117e5565b61102a565b34801561050257600080fd5b506102d3600081565b34801561051757600080fd5b506101c86105263660046116dd565b6110b8565b34801561053757600080fd5b506101c8610546366004611811565b61115b565b34801561055757600080fd5b506101c861056636600461177f565b611289565b34801561057757600080fd5b50600154610224906001600160a01b031681565b34801561059757600080fd5b506101c86105a63660046116dd565b6112a5565b6101ef5b60006105b96112e0565b73eeeeeeeeeeeeeeeeeeeeeeeeeeeeeeeeeeeeeeee600090815260036020527f40c35f83c179e47de306c9fe55fdc60064f11dd52adb51ab61b5643ee626f98d8054349290610609908490611872565b9091555050604051348152339073eeeeeeeeeeeeeeeeeeeeeeeeeeeeeeeeeeeeeeee907f4b3f81827ede20c81afbf1bb77b954afcdcae24d391d99042310cb1d9210dd579060200160405180910390a3506001610673600160008051602061191283398151915255565b90565b60006001600160e01b03198216637965db0b60e01b14806106a757506301ffc9a760e01b6001600160e01b03198316145b92915050565b600281815481106106bd57600080fd5b6000918252602090912001546001600160a01b0316905081565b6106df611318565b600180546001600160a01b0319166001600160a01b0383169081179091556040517f799e16a314d482c87bc47fd219011aaf33f4f9c7e302be5d7a0af286a52998b990600090a250565b6107316112e0565b60005b6002548110156108a95760006002828154811061075357610753611885565b60009182526020808320909101543383526004825260408084206001600160a01b0390921680855291909252912054909150801561089f573360009081526004602090815260408083206001600160a01b038616845282528083208390556003909152812080548392906107c890849061189b565b909155505073eeeeeeeeeeeeeeeeeeeeeeeeeeeeeeeeeeeeeeed196001600160a01b0383160161088b57604051600090339083908381818185875af1925050503d8060008114610834576040519150601f19603f3d011682016040523d82523d6000602084013e610839565b606091505b50509050806108855760405162461bcd60e51b8152602060048201526013602482015272115512081d1c985b9cd9995c8819985a5b1959606a1b60448201526064015b60405180910390fd5b5061089f565b61089f6001600160a01b0383163383611373565b5050600101610734565b506108c1600160008051602061191283398151915255565b565b6060600280548060200260200160405190810160405280929190818152602001828054801561091b57602002820191906000526020600020905b81546001600160a01b031681526001909101906020018083116108fd575b5050505050905090565b60009081526000805160206118f2833981519152602052604090206001015490565b61095082610925565b610959816113d2565b61096383836113dc565b50505050565b6109716112e0565b6001600160a01b0381166109bf5760405162461bcd60e51b8152602060048201526015602482015274496e76616c696420746f6b656e206164647265737360581b604482015260640161087c565b3360009081526004602090815260408083206001600160a01b038516845290915290205480610a265760405162461bcd60e51b81526020600482015260136024820152724e6f2072657761726420617661696c61626c6560681b604482015260640161087c565b3360009081526004602090815260408083206001600160a01b03861684528252808320839055600390915281208054839290610a6390849061189b565b909155505073eeeeeeeeeeeeeeeeeeeeeeeeeeeeeeeeeeeeeeed196001600160a01b03831601610b2157604051600090339083908381818185875af1925050503d8060008114610acf576040519150601f19603f3d011682016040523d82523d6000602084013e610ad4565b606091505b5050905080610b1b5760405162461bcd60e51b8152602060048201526013602482015272115512081d1c985b9cd9995c8819985a5b1959606a1b604482015260640161087c565b50610b35565b610b356001600160a01b0383163383611373565b50610b4d600160008051602061191283398151915255565b50565b6001600160a01b0381163314610b795760405163334bd91960e11b815260040160405180910390fd5b610b838282611481565b505050565b6000546001600160a01b03163314610bb25760405162461bcd60e51b815260040161087c906118ae565b6001600160a01b03831615801590610bd257506001600160a01b03821615155b610c105760405162461bcd60e51b815260206004820152600f60248201526e496e76616c6964206164647265737360881b604482015260640161087c565b6001600160a01b03808316600090815260046020908152604080832093871683529290529081208054839290610c47908490611872565b9091555050604080516001600160a01b038481168252602082018490528516917f10621458f3ad2a9cfcb87c216122570629e44079d6af4d717035eb55d2c60424910160405180910390a2505050565b6001546000906001600160a01b03163314610cf45760405162461bcd60e51b815260206004820152601e60248201527f54726561737572654d616e616765722e6f6e6c79576974686472617765720000604482015260640161087c565b6001600160a01b038416600090815260036020526040902054821115610d6b5760405162461bcd60e51b815260206004820152602660248201527f496e73756666696369656e7420746f6b656e2062616c616e636520696e20636f6044820152651b9d1c9858dd60d21b606482015260840161087c565b610d7f6001600160a01b0385168484611373565b6001600160a01b03841660009081526003602052604081208054849290610da790849061189b565b9091555050604080513381526001600160a01b038581166020830152918101849052908516907f9ca7c1e047552a8048d924a5a8d3c150eb861086a72a9100e5f19d1176c1b7469060600160405180910390a25060019392505050565b6001546000906001600160a01b03163314610e615760405162461bcd60e51b815260206004820152601e60248201527f54726561737572654d616e616765722e6f6e6c79576974686472617765720000604482015260640161087c565b81471015610ebd5760405162461bcd60e51b8152602060048201526024808201527f496e73756666696369656e74204554482062616c616e636520696e20636f6e746044820152631c9858dd60e21b606482015260840161087c565b6000836001600160a01b03168360405160006040518083038185875af1925050503d8060008114610f0a576040519150601f19603f3d011682016040523d82523d6000602084013e610f0f565b606091505b5050905080610f225760009150506106a7565b73eeeeeeeeeeeeeeeeeeeeeeeeeeeeeeeeeeeeeeee600090815260036020527f40c35f83c179e47de306c9fe55fdc60064f11dd52adb51ab61b5643ee626f98d8054859290610f7290849061189b565b9091555050604080513381526001600160a01b038616602082015290810184905273eeeeeeeeeeeeeeeeeeeeeeeeeeeeeeeeeeeeeeee907f9ca7c1e047552a8048d924a5a8d3c150eb861086a72a9100e5f19d1176c1b7469060600160405180910390a25060019392505050565b610fe8611318565b6108c160006114fd565b60009182526000805160206118f2833981519152602090815260408084206001600160a01b0393909316845291905290205460ff1690565b6001600160a01b038216600090815260036020526040812080548391908390611054908490611872565b9091555061106f90506001600160a01b03841633308561156e565b60405182815233906001600160a01b038516907f4b3f81827ede20c81afbf1bb77b954afcdcae24d391d99042310cb1d9210dd579060200160405180910390a350600192915050565b6000546001600160a01b031633146110e25760405162461bcd60e51b815260040161087c906118ae565b6001600160a01b03811661110957604051631326d6d560e01b815260040160405180910390fd5b600280546001810182556000919091527f405787fa12a823e0f2b7631cc41b3ba8828b3321ca811111fa75cd3aa3bb5ace0180546001600160a01b0319166001600160a01b0392909216919091179055565b60006111656115a7565b805490915060ff600160401b820416159067ffffffffffffffff1660008115801561118d5750825b905060008267ffffffffffffffff1660011480156111aa5750303b155b9050811580156111b8575080155b156111d65760405163f92ee8a960e01b815260040160405180910390fd5b845467ffffffffffffffff19166001178555831561120057845460ff60401b1916600160401b1785555b600080546001600160a01b03808a166001600160a01b0319928316179092556001805492891692909116919091179055611239886114fd565b831561127f57845460ff60401b19168555604051600181527fc7f505b2f371ae2175ee4913f4499e1f2633a7b5936321eed1cdaeb6115181d29060200160405180910390a15b5050505050505050565b61129282610925565b61129b816113d2565b6109638383611481565b6112ad611318565b6001600160a01b0381166112d757604051631e4fbdf760e01b81526000600482015260240161087c565b610b4d816114fd565b60008051602061191283398151915280546001190161131257604051633ee5aeb560e01b815260040160405180910390fd5b60029055565b3361134a7f9016d09d72d40fdae2fd8ceac6b6234c7706214fd39c1cd1e609a0528c199300546001600160a01b031690565b6001600160a01b0316146108c15760405163118cdaa760e01b815233600482015260240161087c565b6040516001600160a01b03838116602483015260448201839052610b8391859182169063a9059cbb906064015b604051602081830303815290604052915060e01b6020820180516001600160e01b0383818316178352505050506115d0565b610b4d8133611641565b60006000805160206118f28339815191526113f78484610ff2565b611477576000848152602082815260408083206001600160a01b03871684529091529020805460ff1916600117905561142d3390565b6001600160a01b0316836001600160a01b0316857f2f8788117e7eff1d82e926ec794901d17c78024a50270940304540a733656f0d60405160405180910390a460019150506106a7565b60009150506106a7565b60006000805160206118f283398151915261149c8484610ff2565b15611477576000848152602082815260408083206001600160a01b0387168085529252808320805460ff1916905551339287917ff6391f5c32d9c69d2a47ea670b442974b53935d1edc7fd64eb21e047a839171b9190a460019150506106a7565b7f9016d09d72d40fdae2fd8ceac6b6234c7706214fd39c1cd1e609a0528c19930080546001600160a01b031981166001600160a01b03848116918217845560405192169182907f8be0079c531659141344cd1fd0a4f28419497f9722a3daafe3b4186f6b6457e090600090a3505050565b6040516001600160a01b0384811660248301528381166044830152606482018390526109639186918216906323b872dd906084016113a0565b6000807ff0c57e16840df040f15088dc2f81fe391c3923bec73e23a9662efc9c229c6a006106a7565b600080602060008451602086016000885af1806115f3576040513d6000823e3d81fd5b50506000513d9150811561160b578060011415611618565b6001600160a01b0384163b155b1561096357604051635274afe760e01b81526001600160a01b038516600482015260240161087c565b61164b8282610ff2565b61167a5760405163e2517d3f60e01b81526001600160a01b03821660048201526024810183905260440161087c565b5050565b60006020828403121561169057600080fd5b81356001600160e01b0319811681146116a857600080fd5b9392505050565b6000602082840312156116c157600080fd5b5035919050565b6001600160a01b0381168114610b4d57600080fd5b6000602082840312156116ef57600080fd5b81356116a8816116c8565b602080825282518282018190526000918401906040840190835b8181101561173b5783516001600160a01b0316835260209384019390920191600101611714565b509095945050505050565b6000806040838503121561175957600080fd5b8235611764816116c8565b91506020830135611774816116c8565b809150509250929050565b6000806040838503121561179257600080fd5b823591506020830135611774816116c8565b6000806000606084860312156117b957600080fd5b83356117c4816116c8565b925060208401356117d4816116c8565b929592945050506040919091013590565b600080604083850312156117f857600080fd5b8235611803816116c8565b946020939093013593505050565b60008060006060848603121561182657600080fd5b8335611831816116c8565b92506020840135611841816116c8565b91506040840135611851816116c8565b809150509250925092565b634e487b7160e01b600052601160045260246000fd5b808201808211156106a7576106a761185c565b634e487b7160e01b600052603260045260246000fd5b818103818111156106a7576106a761185c565b60208082526023908201527f54726561737572654d616e616765722e6f6e6c7954726561737572654d616e6160408201526233b2b960e91b60608201526080019056fe02dd7bc7dec4dceedda775e58dd541e08a116c6c53815c0bd028192f7b6268009b779b17422d0df92223018b32b4d1fa46e071723d6817e2486d003becc55f00a2646970667358221220f7746272a45f86542cbf6393219b9d877eeacaeed2af9992d18b56ccd594608664736f6c634300081c0033","linkReferences":{}},"methodIdentifiers":{"DEFAULT_ADMIN_ROLE()":"a217fddf","claimAllTokens()":"1e4bd42c","claimToken(address)":"32f289cf","depositERC20(address,uint256)":"97feb926","depositETH()":"f6326fb3","ethAddress()":"41398b15","getRoleAdmin(bytes32)":"248a9ca3","getTokenWhiteList()":"23ecdbee","grantRewards(address,address,uint256)":"410c9f9a","grantRole(bytes32,address)":"2f2ff15d","hasRole(bytes32,address)":"91d14854","initialize(address,address,address)":"c0c53b8b","owner()":"8da5cb5b","queryRewards(address)":"659f2456","renounceOwnership()":"715018a6","renounceRole(bytes32,address)":"36568abe","revokeRole(bytes32,address)":"d547741f","setTokenWhiteList(address)":"a2672ad7","setWithdrawManager(address)":"17e3e2e8","supportsInterface(bytes4)":"01ffc9a7","tokenBalances(address)":"523fba7f","tokenWhiteList(uint256)":"0ec08b00","transferOwnership(address)":"f2fde38b","treasureManager()":"03186d22","userRewardAmounts(address,address)":"254c5d87","withdrawERC20(address,address,uint256)":"44004cc1","withdrawETH(address,uint256)":"4782f779","withdrawManager()":"ec3e9da5"},"id":42}